{
  "contractName": "PhotoNFTMarketplace",
  "abi": [
    {
      "inputs": [
        {
          "internalType": "contract PhotoNFTData",
          "name": "_photoNFTData",
          "type": "address"
        }
      ],
      "payable": false,
      "stateMutability": "nonpayable",
      "type": "constructor"
    },
    {
      "anonymous": false,
      "inputs": [
        {
          "indexed": false,
          "internalType": "contract PhotoNFT",
          "name": "photoNFT",
          "type": "address"
        },
        {
          "indexed": false,
          "internalType": "uint256",
          "name": "photoId",
          "type": "uint256"
        },
        {
          "indexed": false,
          "internalType": "address",
          "name": "ownerBeforeOwnershipTransferred",
          "type": "address"
        },
        {
          "indexed": false,
          "internalType": "address",
          "name": "ownerAfterOwnershipTransferred",
          "type": "address"
        }
      ],
      "name": "PhotoNFTOwnershipChanged",
      "type": "event"
    },
    {
      "anonymous": false,
      "inputs": [
        {
          "indexed": false,
          "internalType": "uint256",
          "name": "ad",
          "type": "uint256"
        },
        {
          "indexed": false,
          "internalType": "bytes32",
          "name": "status",
          "type": "bytes32"
        }
      ],
      "name": "TradeStatusChange",
      "type": "event"
    },
    {
      "constant": true,
      "inputs": [],
      "name": "PHOTO_NFT_MARKETPLACE",
      "outputs": [
        {
          "internalType": "address",
          "name": "",
          "type": "address"
        }
      ],
      "payable": false,
      "stateMutability": "view",
      "type": "function"
    },
    {
      "constant": false,
      "inputs": [
        {
          "internalType": "contract PhotoNFT",
          "name": "_photoNFT",
          "type": "address"
        }
      ],
      "name": "buyPhotoNFT",
      "outputs": [
        {
          "internalType": "bool",
          "name": "",
          "type": "bool"
        }
      ],
      "payable": true,
      "stateMutability": "payable",
      "type": "function"
    },
    {
      "constant": false,
      "inputs": [
        {
          "internalType": "contract PhotoNFT",
          "name": "photoNFT",
          "type": "address"
        },
        {
          "internalType": "uint256",
          "name": "_photoId",
          "type": "uint256"
        }
      ],
      "name": "cancelTrade",
      "outputs": [],
      "payable": false,
      "stateMutability": "nonpayable",
      "type": "function"
    },
    {
      "constant": true,
      "inputs": [
        {
          "internalType": "uint256",
          "name": "photoId",
          "type": "uint256"
        }
      ],
      "name": "getReputationCount",
      "outputs": [
        {
          "internalType": "uint256",
          "name": "",
          "type": "uint256"
        }
      ],
      "payable": false,
      "stateMutability": "view",
      "type": "function"
    },
    {
      "constant": true,
      "inputs": [
        {
          "internalType": "uint256",
          "name": "_photoId",
          "type": "uint256"
        }
      ],
      "name": "getTrade",
      "outputs": [
        {
          "components": [
            {
              "internalType": "address",
              "name": "seller",
              "type": "address"
            },
            {
              "internalType": "uint256",
              "name": "photoId",
              "type": "uint256"
            },
            {
              "internalType": "uint256",
              "name": "photoPrice",
              "type": "uint256"
            },
            {
              "internalType": "bytes32",
              "name": "status",
              "type": "bytes32"
            }
          ],
          "internalType": "struct PhotoNFTTradable.Trade",
          "name": "trade_",
          "type": "tuple"
        }
      ],
      "payable": false,
      "stateMutability": "view",
      "type": "function"
    },
    {
      "constant": false,
      "inputs": [
        {
          "internalType": "contract PhotoNFT",
          "name": "photoNFT",
          "type": "address"
        },
        {
          "internalType": "uint256",
          "name": "_photoId",
          "type": "uint256"
        }
      ],
      "name": "openTrade",
      "outputs": [],
      "payable": false,
      "stateMutability": "nonpayable",
      "type": "function"
    },
    {
      "constant": false,
      "inputs": [
        {
          "internalType": "contract PhotoNFT",
          "name": "photoNFT",
          "type": "address"
        },
        {
          "internalType": "uint256",
          "name": "_photoId",
          "type": "uint256"
        },
        {
          "internalType": "uint256",
          "name": "_photoPrice",
          "type": "uint256"
        }
      ],
      "name": "openTradeWhenCreateNewPhotoNFT",
      "outputs": [],
      "payable": false,
      "stateMutability": "nonpayable",
      "type": "function"
    },
    {
      "constant": true,
      "inputs": [],
      "name": "photoNFT",
      "outputs": [
        {
          "internalType": "contract PhotoNFT",
          "name": "",
          "type": "address"
        }
      ],
      "payable": false,
      "stateMutability": "view",
      "type": "function"
    },
    {
      "constant": true,
      "inputs": [],
      "name": "photoNFTData",
      "outputs": [
        {
          "internalType": "contract PhotoNFTData",
          "name": "",
          "type": "address"
        }
      ],
      "payable": false,
      "stateMutability": "view",
      "type": "function"
    },
    {
      "constant": false,
      "inputs": [
        {
          "internalType": "address",
          "name": "from",
          "type": "address"
        },
        {
          "internalType": "address",
          "name": "to",
          "type": "address"
        },
        {
          "internalType": "uint256",
          "name": "photoId",
          "type": "uint256"
        }
      ],
      "name": "reputation",
      "outputs": [
        {
          "internalType": "uint256",
          "name": "",
          "type": "uint256"
        },
        {
          "internalType": "uint256",
          "name": "",
          "type": "uint256"
        }
      ],
      "payable": false,
      "stateMutability": "nonpayable",
      "type": "function"
    },
    {
      "constant": true,
      "inputs": [
        {
          "internalType": "uint256",
          "name": "",
          "type": "uint256"
        }
      ],
      "name": "trades",
      "outputs": [
        {
          "internalType": "address",
          "name": "seller",
          "type": "address"
        },
        {
          "internalType": "uint256",
          "name": "photoId",
          "type": "uint256"
        },
        {
          "internalType": "uint256",
          "name": "photoPrice",
          "type": "uint256"
        },
        {
          "internalType": "bytes32",
          "name": "status",
          "type": "bytes32"
        }
      ],
      "payable": false,
      "stateMutability": "view",
      "type": "function"
    },
    {
      "constant": false,
      "inputs": [
        {
          "internalType": "contract PhotoNFT",
          "name": "_photoNFT",
          "type": "address"
        },
        {
          "internalType": "uint256",
          "name": "_photoId",
          "type": "uint256"
        },
        {
          "internalType": "address",
          "name": "_buyer",
          "type": "address"
        }
      ],
      "name": "transferOwnershipOfPhotoNFT",
      "outputs": [],
      "payable": false,
      "stateMutability": "nonpayable",
      "type": "function"
    }
  ],
  "bytecode": "0x60806040523480156200001157600080fd5b50604051620016243803806200162483398101604081905262000034916200007c565b600180546001600160a01b039092166001600160a01b03199283168117909155600060035560058054909216179055620000e5565b80516200007681620000cb565b92915050565b6000602082840312156200008f57600080fd5b60006200009d848462000069565b949350505050565b60006200007682620000bf565b60006200007682620000a5565b6001600160a01b031690565b620000d681620000b2565b8114620000e257600080fd5b50565b61152f80620000f56000396000f3fe6080604052600436106100a75760003560e01c8063759c4bf311610064578063759c4bf3146101965780637cc0c9bd146101b657806380a279c4146101e3578063a2793daf14610203578063e61b28db14610231578063ec03951414610253576100a7565b806316f946ef146100ac5780631e6c598e146100d55780632db25e0514610105578063493c21761461013257806349b1d3e7146101545780634fe71d1314610174575b600080fd5b6100bf6100ba366004610eeb565b610268565b6040516100cc9190611299565b60405180910390f35b3480156100e157600080fd5b506100f56100f0366004610fed565b61062b565b6040516100cc949392919061125b565b34801561011157600080fd5b50610125610120366004610fed565b61065e565b6040516100cc9190611383565b34801561013e57600080fd5b5061015261014d366004610f43565b6106ba565b005b34801561016057600080fd5b5061015261016f366004610f86565b6107b0565b34801561018057600080fd5b506101896108c0565b6040516100cc91906111f5565b3480156101a257600080fd5b506101526101b1366004610f09565b6108cf565b3480156101c257600080fd5b506101d66101d1366004610fed565b610a5c565b6040516100cc9190611391565b3480156101ef57600080fd5b506101526101fe366004610f09565b610a62565b34801561020f57600080fd5b5061022361021e366004610e80565b610bbc565b6040516100cc9291906113d3565b34801561023d57600080fd5b50610246610bc7565b6040516100cc91906112a7565b34801561025f57600080fd5b50610246610bd6565b600081610273610c14565b600554604051637fd6c40560e01b81526001600160a01b0390911690637fd6c405906102a39085906004016112a7565b60006040518083038186803b1580156102bb57600080fd5b505afa1580156102cf573d6000803e3d6000fd5b505050506040513d6000823e601f3d908101601f191682016040526102f79190810190610fb8565b6060810151608082015191925090819034811461032f5760405162461bcd60e51b815260040161032690611373565b60405180910390fd5b6040516001600160a01b0383169082156108fc029083906000818181858888f19350505050158015610365573d6000803e3d6000fd5b5060405163095ea7b360e01b815233906001906001600160a01b0388169063095ea7b3906103999085908590600401611239565b600060405180830381600087803b1580156103b357600080fd5b505af11580156103c7573d6000803e3d6000fd5b50506040516331a9108f60e11b8152600092506001600160a01b038a169150636352211e906103fa908590600401611391565b60206040518083038186803b15801561041257600080fd5b505afa158015610426573d6000803e3d6000fd5b505050506040513d601f19601f8201168201806040525061044a9190810190610e5a565b90506104578883856106ba565b600554604051637cb1479b60e01b81526001600160a01b0390911690637cb1479b90610489908b9087906004016112b5565b602060405180830381600087803b1580156104a357600080fd5b505af11580156104b7573d6000803e3d6000fd5b505050506040513d601f19601f820116820180604052506104db9190810190610ecd565b50600554604051634dd5bfa560e11b81526001600160a01b0390911690639bab7f4a9061050c908b906004016112d0565b602060405180830381600087803b15801561052657600080fd5b505af115801561053a573d6000803e3d6000fd5b505050506040513d601f19601f8201168201806040525061055e9190810190610ecd565b506040516331a9108f60e11b81526000906001600160a01b038a1690636352211e9061058e908690600401611391565b60206040518083038186803b1580156105a657600080fd5b505afa1580156105ba573d6000803e3d6000fd5b505050506040513d601f19601f820116820180604052506105de9190810190610e5a565b90507fa8ffd0052cf94298cdb4d728ccaebde44f94e7568e31b2129a24a8b2e10fea8c89848484604051610615949392919061130e565b60405180910390a1505050505050505050919050565b600260208190526000918252604090912080546001820154928201546003909201546001600160a01b0390911692919084565b610666610c6b565b61066e610c6b565b5050600090815260026020818152604092839020835160808101855281546001600160a01b03168152600182015492810192909252918201549281019290925260030154606082015290565b826106c3610c6b565b6106cc8461065e565b905080606001516327b832b760e11b146106f85760405162461bcd60e51b815260040161032690611363565b610703858585610be5565b60208101516040516323b872dd60e01b81526001600160a01b038416916323b872dd9161073791309188919060040161122b565b600060405180830381600087803b15801561075157600080fd5b505af1158015610765573d6000803e3d6000fd5b505050506810d85b98d95b1b195960ba1b61077f8561065e565b606001526040516000805160206114cd833981519152906107a190869061139f565b60405180910390a15050505050565b6040516323b872dd60e01b81526001600160a01b038416906323b872dd906107e090339030908790600401611203565b600060405180830381600087803b1580156107fa57600080fd5b505af115801561080e573d6000803e3d6000fd5b50506003805460019081018083556040805160808101825233815260208082018a81528284018a81526327b832b760e11b60608501908152600096875260029384905295859020935184546001600160a01b0319166001600160a01b03909116178455905195830195909555935193810193909355905191830191909155905490516000805160206114cd83398151915293506108b3925060001991909101906113b9565b60405180910390a1505050565b6004546001600160a01b031681565b600154604051634dd5bfa560e11b81526001600160a01b0390911690639bab7f4a906108ff9085906004016112d0565b602060405180830381600087803b15801561091957600080fd5b505af115801561092d573d6000803e3d6000fd5b505050506040513d601f19601f820116820180604052506109519190810190610ecd565b50600081815260026020526040902080546001600160a01b031633146109895760405162461bcd60e51b815260040161032690611343565b80600301546327b832b760e11b146109b35760405162461bcd60e51b815260040161032690611363565b805460018201546040516323b872dd60e01b81526001600160a01b03868116936323b872dd936109eb9330939092169160040161122b565b600060405180830381600087803b158015610a0557600080fd5b505af1158015610a19573d6000803e3d6000fd5b505050600083815260026020526040908190206810d85b98d95b1b195960ba1b600390910155516000805160206114cd83398151915291506108b390849061139f565b50600090565b600154604051634dd5bfa560e11b81526001600160a01b0390911690639bab7f4a90610a929085906004016112ef565b602060405180830381600087803b158015610aac57600080fd5b505af1158015610ac0573d6000803e3d6000fd5b505050506040513d601f19601f82011682018060405250610ae49190810190610ecd565b50600081815260026020526040902080546001600160a01b03163314610b1c5760405162461bcd60e51b815260040161032690611353565b60018101546040516323b872dd60e01b81526001600160a01b038516916323b872dd91610b50913391309190600401611203565b600060405180830381600087803b158015610b6a57600080fd5b505af1158015610b7e573d6000803e3d6000fd5b505050600083815260026020526040908190206327b832b760e11b600390910155516000805160206114cd83398151915291506108b39084906113b9565b600080935093915050565b6000546001600160a01b031681565b6005546001600160a01b031681565b60009182526002602052604090912080546001600160a01b0319166001600160a01b0390921691909117905550565b60405180610100016040528060006001600160a01b03168152602001606081526020016060815260200160006001600160a01b03168152602001600081526020016060815260200160608152602001600081525090565b60408051608081018252600080825260208201819052918101829052606081019190915290565b8035610c9d8161149a565b92915050565b8051610c9d8161149a565b8051610c9d816114b1565b8035610c9d816114ba565b8051610c9d816114ba565b600082601f830112610ce057600080fd5b8151610cf3610cee82611408565b6113e1565b91508082526020830160208301858383011115610d0f57600080fd5b610d1a83828461146e565b50505092915050565b60006101008284031215610d3657600080fd5b610d416101006113e1565b90506000610d4f8484610cc4565b825250602082015167ffffffffffffffff811115610d6c57600080fd5b610d7884828501610ccf565b602083015250604082015167ffffffffffffffff811115610d9857600080fd5b610da484828501610ccf565b6040830152506060610db884828501610ca3565b6060830152506080610dcc84828501610e4f565b60808301525060a082015167ffffffffffffffff811115610dec57600080fd5b610df884828501610ccf565b60a08301525060c082015167ffffffffffffffff811115610e1857600080fd5b610e2484828501610ccf565b60c08301525060e0610e3884828501610e4f565b60e08301525092915050565b8035610c9d816114c3565b8051610c9d816114c3565b600060208284031215610e6c57600080fd5b6000610e788484610ca3565b949350505050565b600080600060608486031215610e9557600080fd5b6000610ea18686610c92565b9350506020610eb286828701610c92565b9250506040610ec386828701610e44565b9150509250925092565b600060208284031215610edf57600080fd5b6000610e788484610cae565b600060208284031215610efd57600080fd5b6000610e788484610cb9565b60008060408385031215610f1c57600080fd5b6000610f288585610cb9565b9250506020610f3985828601610e44565b9150509250929050565b600080600060608486031215610f5857600080fd5b6000610f648686610cb9565b9350506020610f7586828701610e44565b9250506040610ec386828701610c92565b600080600060608486031215610f9b57600080fd5b6000610fa78686610cb9565b9350506020610eb286828701610e44565b600060208284031215610fca57600080fd5b815167ffffffffffffffff811115610fe157600080fd5b610e7884828501610d23565b600060208284031215610fff57600080fd5b6000610e788484610e44565b61101481611463565b82525050565b61101481611439565b61101481611444565b61101481611449565b6110148161144c565b600061104b602683611430565b7f54726164652063616e2062652063616e63656c6c6564206f6e6c79206279207381526532b63632b91760d11b602082015260400192915050565b6000611093602183611430565b7f54726164652063616e206265206f70656e206f6e6c792062792073656c6c65728152601760f91b602082015260400192915050565b60006110d6601283611430565b712a3930b2329034b9903737ba1027b832b71760711b815260200192915050565b6810d85b98d95b1b195960ba1b9052565b6000611115600983611430565b6810d85b98d95b1b195960ba1b815260200192915050565b6327b832b760e11b9052565b6000611146600483611430565b6327b832b760e11b815260200192915050565b6000611166602a83611430565b7f6d73672e76616c75652073686f756c6420626520657175616c20746f2074686581526908189d5e505b5bdd5b9d60b21b602082015260400192915050565b805160808301906111b6848261101a565b5060208201516111c9602085018261102c565b5060408201516111dc604085018261102c565b5060608201516111ef606085018261102c565b50505050565b60208101610c9d828461101a565b60608101611211828661100b565b61121e602083018561101a565b610e78604083018461102c565b60608101611211828661101a565b60408101611247828561101a565b611254602083018461102c565b9392505050565b60808101611269828761101a565b611276602083018661102c565b611283604083018561102c565b611290606083018461102c565b95945050505050565b60208101610c9d8284611023565b60208101610c9d8284611035565b604081016112c38285611035565b611254602083018461101a565b604081016112de8284611035565b818103602083015261125481611108565b604081016112fd8284611035565b818103602083015261125481611139565b6080810161131c8287611035565b611329602083018661102c565b611336604083018561101a565b611290606083018461101a565b60208082528101610c9d8161103e565b60208082528101610c9d81611086565b60208082528101610c9d816110c9565b60208082528101610c9d81611159565b60808101610c9d82846111a5565b60208101610c9d828461102c565b604081016113ad828461102c565b610c9d602083016110f7565b604081016113c7828461102c565b610c9d6020830161112d565b60408101611247828561102c565b60405181810167ffffffffffffffff8111828210171561140057600080fd5b604052919050565b600067ffffffffffffffff82111561141f57600080fd5b506020601f91909101601f19160190565b90815260200190565b6000610c9d82611457565b151590565b90565b6000610c9d82611439565b6001600160a01b031690565b6000610c9d8261144c565b60005b83811015611489578181015183820152602001611471565b838111156111ef5750506000910152565b6114a381611439565b81146114ae57600080fd5b50565b6114a381611444565b6114a38161144c565b6114a38161144956fe4d38ed2c5ea671a5ccddc331f0ebebd94a60aaf6e572543497485d4d148f9edfa365627a7a72315820f44eeb864cd392257d877edaa765dcbb0c9556f64beaa4e1d3f5dffdfcb0f6af6c6578706572696d656e74616cf564736f6c63430005100040",
  "source": "pragma solidity ^0.5.16;\npragma experimental ABIEncoderV2;\n\n//import { ERC20 } from './openzeppelin-solidity/contracts/token/ERC20/ERC20.sol';\nimport { SafeMath } from \"./openzeppelin-solidity/contracts/math/SafeMath.sol\";\nimport { PhotoNFT } from \"./PhotoNFT.sol\";\nimport { PhotoNFTTradable } from \"./PhotoNFTTradable.sol\";\nimport { PhotoNFTMarketplaceEvents } from \"./photo-nft-marketplace/commons/PhotoNFTMarketplaceEvents.sol\";\nimport { PhotoNFTData } from \"./PhotoNFTData.sol\";\n\n\ncontract PhotoNFTMarketplace is PhotoNFTTradable, PhotoNFTMarketplaceEvents {\n    using SafeMath for uint256;\n\n    address public PHOTO_NFT_MARKETPLACE;\n\n    PhotoNFTData public photoNFTData;\n\n    constructor(PhotoNFTData _photoNFTData) public PhotoNFTTradable(_photoNFTData) {\n        photoNFTData = _photoNFTData;\n        address payable PHOTO_NFT_MARKETPLACE = address(uint160(address(this)));\n    }\n\n    /** \n     * @notice - Buy function is that buy NFT token and ownership transfer. (Reference from IERC721.sol)\n     * @notice - msg.sender buy NFT with ETH (msg.value)\n     * @notice - PhotoID is always 1. Because each photoNFT is unique.\n     */\n    function buyPhotoNFT(PhotoNFT _photoNFT) public payable returns (bool) {\n        PhotoNFT photoNFT = _photoNFT;\n\n        PhotoNFTData.Photo memory photo = photoNFTData.getPhotoByNFTAddress(photoNFT);\n        address _seller = photo.ownerAddress;                     /// Owner\n        address payable seller = address(uint160(_seller));  /// Convert owner address with payable\n        uint buyAmount = photo.photoPrice;\n        require (msg.value == buyAmount, \"msg.value should be equal to the buyAmount\");\n \n        /// Bought-amount is transferred into a seller wallet\n        seller.transfer(buyAmount);\n\n        /// Approve a buyer address as a receiver before NFT's transferFrom method is executed\n        address buyer = msg.sender;\n        uint photoId = 1;  /// [Note]: PhotoID is always 1. Because each photoNFT is unique.\n        photoNFT.approve(buyer, photoId);\n\n        address ownerBeforeOwnershipTransferred = photoNFT.ownerOf(photoId);\n\n        /// Transfer Ownership of the PhotoNFT from a seller to a buyer\n        transferOwnershipOfPhotoNFT(photoNFT, photoId, buyer);    \n        photoNFTData.updateOwnerOfPhotoNFT(photoNFT, buyer);\n        photoNFTData.updateStatus(photoNFT, \"Cancelled\");\n\n        /// Event for checking result of transferring ownership of a photoNFT\n        address ownerAfterOwnershipTransferred = photoNFT.ownerOf(photoId);\n        emit PhotoNFTOwnershipChanged(photoNFT, photoId, ownerBeforeOwnershipTransferred, ownerAfterOwnershipTransferred);\n\n        /// Mint a photo with a new photoId\n        //string memory tokenURI = photoNFTFactory.getTokenURI(photoData.ipfsHashOfPhoto);  /// [Note]: IPFS hash + URL\n        //photoNFT.mint(msg.sender, tokenURI);\n    }\n\n\n    ///-----------------------------------------------------\n    /// Methods below are pending methods\n    ///-----------------------------------------------------\n\n    /** \n     * @dev reputation function is that gives reputation to a user who has ownership of being posted photo.\n     * @dev Each user has reputation data in struct\n     */\n    function reputation(address from, address to, uint256 photoId) public returns (uint256, uint256) {\n\n        // Photo storage photo = photos[photoId];\n        // photo.reputation = photo.reputation.add(1);\n\n        // emit AddReputation(photoId, photo.reputation);\n\n        // return (photoId, photo.reputation);\n        return (0, 0);\n    }\n    \n\n    function getReputationCount(uint256 photoId) public view returns (uint256) {\n        uint256 curretReputationCount;\n\n        // Photo memory photo = photos[photoId];\n        // curretReputationCount = photo.reputation;\n\n        return curretReputationCount;\n    }    \n\n}\n",
  "sourcePath": "D:\\Learning\\BlockChain\\source\\NFT Marketpalce\\NFT-based-photo-marketplace-master\\NFT-based-photo-marketplace-master\\contracts\\PhotoNFTMarketplace.sol",
  "compiler": {
    "name": "solc",
    "version": "0.5.16+commit.9c3226ce.Emscripten.clang"
  },
  "schemaVersion": "3.4.3",
  "updatedAt": "2021-08-29T20:16:21.041Z",
  "networkType": "ethereum",
  "devdoc": {
    "methods": {
      "cancelTrade(address,uint256)": {
        "details": "Cancels a trade by the seller."
      },
      "getTrade(uint256)": {
        "details": "- Returns the details for a trade."
      },
      "openTrade(address,uint256)": {
        "details": "Opens a trade by the seller."
      },
      "openTradeWhenCreateNewPhotoNFT(address,uint256,uint256)": {
        "details": "Opens a new trade. Puts _photoId in escrow.",
        "params": {
          "_photoId": "The id for the photoId to trade.",
          "_photoPrice": "The amount of currency for which to trade the photoId."
        }
      },
      "reputation(address,address,uint256)": {
        "details": "reputation function is that gives reputation to a user who has ownership of being posted photo.Each user has reputation data in struct"
      },
      "transferOwnershipOfPhotoNFT(address,uint256,address)": {
        "details": "Executes a trade. Must have approved this contract to transfer the amount of currency specified to the seller. Transfers ownership of the photoId to the filler."
      }
    }
  },
  "userdoc": {
    "methods": {
      "buyPhotoNFT(address)": {
        "notice": "- Buy function is that buy NFT token and ownership transfer. (Reference from IERC721.sol)- msg.sender buy NFT with ETH (msg.value)- PhotoID is always 1. Because each photoNFT is unique."
      },
      "openTradeWhenCreateNewPhotoNFT(address,uint256,uint256)": {
        "notice": "- This method is only executed when a seller create a new PhotoNFT"
      }
    }
  }
}